{
  "contractName": "Lottery",
  "abi": [
    {
      "inputs": [],
      "stateMutability": "nonpayable",
      "type": "constructor"
    },
    {
      "anonymous": false,
      "inputs": [
        {
          "indexed": false,
          "internalType": "uint256",
          "name": "index",
          "type": "uint256"
        },
        {
          "indexed": false,
          "internalType": "address",
          "name": "bettor",
          "type": "address"
        },
        {
          "indexed": false,
          "internalType": "uint256",
          "name": "amount",
          "type": "uint256"
        },
        {
          "indexed": false,
          "internalType": "bytes1",
          "name": "challenges",
          "type": "bytes1"
        },
        {
          "indexed": false,
          "internalType": "uint256",
          "name": "answerBlockNumber",
          "type": "uint256"
        }
      ],
      "name": "BET",
      "type": "event"
    },
    {
      "anonymous": false,
      "inputs": [
        {
          "indexed": false,
          "internalType": "uint256",
          "name": "index",
          "type": "uint256"
        },
        {
          "indexed": false,
          "internalType": "address",
          "name": "bettor",
          "type": "address"
        },
        {
          "indexed": false,
          "internalType": "uint256",
          "name": "amount",
          "type": "uint256"
        },
        {
          "indexed": false,
          "internalType": "bytes1",
          "name": "challenges",
          "type": "bytes1"
        },
        {
          "indexed": false,
          "internalType": "bytes1",
          "name": "answer",
          "type": "bytes1"
        },
        {
          "indexed": false,
          "internalType": "uint256",
          "name": "answerBlockNumber",
          "type": "uint256"
        }
      ],
      "name": "DRAW",
      "type": "event"
    },
    {
      "anonymous": false,
      "inputs": [
        {
          "indexed": false,
          "internalType": "uint256",
          "name": "index",
          "type": "uint256"
        },
        {
          "indexed": false,
          "internalType": "address",
          "name": "bettor",
          "type": "address"
        },
        {
          "indexed": false,
          "internalType": "uint256",
          "name": "amount",
          "type": "uint256"
        },
        {
          "indexed": false,
          "internalType": "bytes1",
          "name": "challenges",
          "type": "bytes1"
        },
        {
          "indexed": false,
          "internalType": "bytes1",
          "name": "answer",
          "type": "bytes1"
        },
        {
          "indexed": false,
          "internalType": "uint256",
          "name": "answerBlockNumber",
          "type": "uint256"
        }
      ],
      "name": "FAIL",
      "type": "event"
    },
    {
      "anonymous": false,
      "inputs": [
        {
          "indexed": false,
          "internalType": "uint256",
          "name": "index",
          "type": "uint256"
        },
        {
          "indexed": false,
          "internalType": "address",
          "name": "bettor",
          "type": "address"
        },
        {
          "indexed": false,
          "internalType": "uint256",
          "name": "amount",
          "type": "uint256"
        },
        {
          "indexed": false,
          "internalType": "bytes1",
          "name": "challenges",
          "type": "bytes1"
        },
        {
          "indexed": false,
          "internalType": "uint256",
          "name": "answerBlockNumber",
          "type": "uint256"
        }
      ],
      "name": "REFUND",
      "type": "event"
    },
    {
      "anonymous": false,
      "inputs": [
        {
          "indexed": false,
          "internalType": "uint256",
          "name": "index",
          "type": "uint256"
        },
        {
          "indexed": false,
          "internalType": "address",
          "name": "bettor",
          "type": "address"
        },
        {
          "indexed": false,
          "internalType": "uint256",
          "name": "amount",
          "type": "uint256"
        },
        {
          "indexed": false,
          "internalType": "bytes1",
          "name": "challenges",
          "type": "bytes1"
        },
        {
          "indexed": false,
          "internalType": "bytes1",
          "name": "answer",
          "type": "bytes1"
        },
        {
          "indexed": false,
          "internalType": "uint256",
          "name": "answerBlockNumber",
          "type": "uint256"
        }
      ],
      "name": "WIN",
      "type": "event"
    },
    {
      "inputs": [],
      "name": "answerForTest",
      "outputs": [
        {
          "internalType": "bytes32",
          "name": "",
          "type": "bytes32"
        }
      ],
      "stateMutability": "view",
      "type": "function"
    },
    {
      "inputs": [],
      "name": "owner",
      "outputs": [
        {
          "internalType": "address payable",
          "name": "",
          "type": "address"
        }
      ],
      "stateMutability": "view",
      "type": "function"
    },
    {
      "inputs": [
        {
          "internalType": "bytes32",
          "name": "_answer",
          "type": "bytes32"
        }
      ],
      "name": "setAnswerForTest",
      "outputs": [
        {
          "internalType": "bool",
          "name": "result",
          "type": "bool"
        }
      ],
      "stateMutability": "nonpayable",
      "type": "function"
    },
    {
      "inputs": [],
      "name": "getPot",
      "outputs": [
        {
          "internalType": "uint256",
          "name": "value",
          "type": "uint256"
        }
      ],
      "stateMutability": "view",
      "type": "function"
    },
    {
      "inputs": [
        {
          "internalType": "bytes1",
          "name": "challenges",
          "type": "bytes1"
        }
      ],
      "name": "bet",
      "outputs": [
        {
          "internalType": "bool",
          "name": "result",
          "type": "bool"
        }
      ],
      "stateMutability": "payable",
      "type": "function"
    },
    {
      "inputs": [],
      "name": "distribute",
      "outputs": [],
      "stateMutability": "nonpayable",
      "type": "function"
    },
    {
      "inputs": [
        {
          "internalType": "bytes1",
          "name": "challenges",
          "type": "bytes1"
        },
        {
          "internalType": "bytes32",
          "name": "answer",
          "type": "bytes32"
        }
      ],
      "name": "isMatch",
      "outputs": [
        {
          "internalType": "enum Lottery.BettingResult",
          "name": "",
          "type": "uint8"
        }
      ],
      "stateMutability": "pure",
      "type": "function"
    },
    {
      "inputs": [
        {
          "internalType": "uint256",
          "name": "index",
          "type": "uint256"
        }
      ],
      "name": "getBetInfo",
      "outputs": [
        {
          "internalType": "uint256",
          "name": "answerBlockNumber",
          "type": "uint256"
        },
        {
          "internalType": "address",
          "name": "bettor",
          "type": "address"
        },
        {
          "internalType": "bytes1",
          "name": "challenges",
          "type": "bytes1"
        }
      ],
      "stateMutability": "view",
      "type": "function"
    }
  ],
  "bytecode": "0x60806040526000600660006101000a81548160ff02191690831515021790555034801561002b57600080fd5b5033600360006101000a81548173ffffffffffffffffffffffffffffffffffffffff021916908373ffffffffffffffffffffffffffffffffffffffff1602179055506117c78061007c6000396000f3fe60806040526004361061007b5760003560e01c80638da5cb5b1161004e5780638da5cb5b1461015257806399a167d71461017d578063e4fc6b6d146101ba578063f4b46f5b146101d15761007b565b8063403c9fa8146100805780637009fa36146100ab57806379141f80146100e857806384f7e4f014610127575b600080fd5b34801561008c57600080fd5b50610095610201565b6040516100a29190610f8e565b60405180910390f35b3480156100b757600080fd5b506100d260048036038101906100cd9190610fe4565b61020b565b6040516100df919061102c565b60405180910390f35b3480156100f457600080fd5b5061010f600480360381019061010a9190611073565b6102ad565b60405161011e9392919061111c565b60405180910390f35b34801561013357600080fd5b5061013c6103b6565b6040516101499190611162565b60405180910390f35b34801561015e57600080fd5b506101676103bc565b604051610174919061119e565b60405180910390f35b34801561018957600080fd5b506101a4600480360381019061019f91906111e5565b6103e2565b6040516101b1919061129c565b60405180910390f35b3480156101c657600080fd5b506101cf6106cb565b005b6101eb60048036038101906101e691906112b7565b610b21565b6040516101f8919061102c565b60405180910390f35b6000600454905090565b6000600360009054906101000a900473ffffffffffffffffffffffffffffffffffffffff1673ffffffffffffffffffffffffffffffffffffffff163373ffffffffffffffffffffffffffffffffffffffff161461029d576040517f08c379a000000000000000000000000000000000000000000000000000000000815260040161029490611367565b60405180910390fd5b8160058190555060019050919050565b600080600080600080868152602001908152602001600020604051806060016040529081600082015481526020016001820160009054906101000a900473ffffffffffffffffffffffffffffffffffffffff1673ffffffffffffffffffffffffffffffffffffffff1673ffffffffffffffffffffffffffffffffffffffff1681526020016001820160149054906101000a900460f81b7effffffffffffffffffffffffffffffffffffffffffffffffffffffffffffff19167effffffffffffffffffffffffffffffffffffffffffffffffffffffffffffff19168152505090506003816000015161039e91906113b6565b93508060200151925080604001519150509193909250565b60055481565b600360009054906101000a900473ffffffffffffffffffffffffffffffffffffffff1681565b60008083905060008490506000846000602081106104035761040261140c565b5b1a60f81b905060008560006020811061041f5761041e61140c565b5b1a60f81b90506004847effffffffffffffffffffffffffffffffffffffffffffffffffffffffffffff1916901c93506004847effffffffffffffffffffffffffffffffffffffffffffffffffffffffffffff1916901b93506004827effffffffffffffffffffffffffffffffffffffffffffffffffffffffffffff1916901c91506004827effffffffffffffffffffffffffffffffffffffffffffffffffffffffffffff1916901b91506004837effffffffffffffffffffffffffffffffffffffffffffffffffffffffffffff1916901b92506004837effffffffffffffffffffffffffffffffffffffffffffffffffffffffffffff1916901c92506004817effffffffffffffffffffffffffffffffffffffffffffffffffffffffffffff1916901b90506004817effffffffffffffffffffffffffffffffffffffffffffffffffffffffffffff1916901c9050837effffffffffffffffffffffffffffffffffffffffffffffffffffffffffffff1916827effffffffffffffffffffffffffffffffffffffffffffffffffffffffffffff19161480156106035750827effffffffffffffffffffffffffffffffffffffffffffffffffffffffffffff1916817effffffffffffffffffffffffffffffffffffffffffffffffffffffffffffff1916145b156106155760019450505050506106c5565b837effffffffffffffffffffffffffffffffffffffffffffffffffffffffffffff1916827effffffffffffffffffffffffffffffffffffffffffffffffffffffffffffff191614806106aa5750827effffffffffffffffffffffffffffffffffffffffffffffffffffffffffffff1916817effffffffffffffffffffffffffffffffffffffffffffffffffffffffffffff1916145b156106bc5760029450505050506106c5565b60009450505050505b92915050565b6000806106d6610f1c565b60008060025494505b6001548511610b1357600080868152602001908152602001600020604051806060016040529081600082015481526020016001820160009054906101000a900473ffffffffffffffffffffffffffffffffffffffff1673ffffffffffffffffffffffffffffffffffffffff1673ffffffffffffffffffffffffffffffffffffffff1681526020016001820160149054906101000a900460f81b7effffffffffffffffffffffffffffffffffffffffffffffffffffffffffffff19167effffffffffffffffffffffffffffffffffffffffffffffffffffffffffffff191681525050925060006107d18460000151610c15565b90506107e08460000151610c3d565b9250600060028111156107f6576107f5611225565b5b83600281111561080957610808611225565b5b03610a355761081c8460400151826103e2565b91506001600281111561083257610831611225565b5b82600281111561084557610844611225565b5b036108db5761086c84602001516611c37937e0800060045461086791906113b6565b610c9f565b945060006004819055507f8219079e2d6c1192fb0ff7f78e6faaf5528ad6687e69749205d87bd4b156912b868560200151878760400151856000602081106108b7576108b661140c565b5b1a60f81b89600001516040516108d29695949392919061149a565b60405180910390a15b600060028111156108ef576108ee611225565b5b82600281111561090257610901611225565b5b0361098d576611c37937e080006004600082825461092091906113b6565b925050819055507f3b19d607433249d2ebc766ae82ca3848e9c064f1febb5147bc6e5b21d0adebc586856020015160008760400151856000602081106109695761096861140c565b5b1a60f81b896000015160405161098496959493929190611536565b60405180910390a15b6002808111156109a05761099f611225565b5b8260028111156109b3576109b2611225565b5b03610a34576109cd84602001516611c37937e08000610c9f565b94507f3b19d607433249d2ebc766ae82ca3848e9c064f1febb5147bc6e5b21d0adebc586856020015187876040015185600060208110610a1057610a0f61140c565b5b1a60f81b8960000151604051610a2b9695949392919061149a565b60405180910390a15b5b60016002811115610a4957610a48611225565b5b836002811115610a5c57610a5b611225565b5b03610a675750610b13565b600280811115610a7a57610a79611225565b5b836002811115610a8d57610a8c611225565b5b03610af557610aa784602001516611c37937e08000610c9f565b94507f59c0185881271a0f53d43e6ab9310091408f9e0ff9ae2512613de800f26b8de48685602001518787604001518860000151604051610aec959493929190611597565b60405180910390a15b610afe86610d71565b50508480610b0b906115ea565b9550506106df565b846002819055505050505050565b60006611c37937e080003414610b6c576040517f08c379a0000000000000000000000000000000000000000000000000000000008152600401610b639061167e565b60405180910390fd5b610b7582610dd4565b610bb4576040517f08c379a0000000000000000000000000000000000000000000000000000000008152600401610bab906116ea565b60405180910390fd5b7f100791de9f40bf2d56ffa6dc5597d2fd0b2703ea70bc7548cd74c04f5d215ab760018054610be3919061170a565b333485600343610bf391906113b6565b604051610c0495949392919061173e565b60405180910390a160019050919050565b6000600660009054906101000a900460ff16610c3357600554610c36565b81405b9050919050565b60008143118015610c5a575061010082610c5791906113b6565b43105b15610c685760009050610c9a565b814311610c785760019050610c9a565b61010082610c8691906113b6565b4310610c955760029050610c9a565b600290505b919050565b6000806000905060008184610cb4919061170a565b90508473ffffffffffffffffffffffffffffffffffffffff166108fc829081150290604051600060405180830381858888f19350505050158015610cfc573d6000803e3d6000fd5b50600360009054906101000a900473ffffffffffffffffffffffffffffffffffffffff1673ffffffffffffffffffffffffffffffffffffffff166108fc839081150290604051600060405180830381858888f19350505050158015610d65573d6000803e3d6000fd5b50809250505092915050565b60008060008381526020019081526020016000206000808201600090556001820160006101000a81549073ffffffffffffffffffffffffffffffffffffffff02191690556001820160146101000a81549060ff0219169055505060019050919050565b6000610dde610f1c565b33816020019073ffffffffffffffffffffffffffffffffffffffff16908173ffffffffffffffffffffffffffffffffffffffff1681525050438160000181815250508281604001907effffffffffffffffffffffffffffffffffffffffffffffffffffffffffffff191690817effffffffffffffffffffffffffffffffffffffffffffffffffffffffffffff1916815250508060008060015481526020019081526020016000206000820151816000015560208201518160010160006101000a81548173ffffffffffffffffffffffffffffffffffffffff021916908373ffffffffffffffffffffffffffffffffffffffff16021790555060408201518160010160146101000a81548160ff021916908360f81c021790555090505060016000815480929190610f0d906115ea565b91905055506001915050919050565b604051806060016040528060008152602001600073ffffffffffffffffffffffffffffffffffffffff16815260200160007effffffffffffffffffffffffffffffffffffffffffffffffffffffffffffff191681525090565b6000819050919050565b610f8881610f75565b82525050565b6000602082019050610fa36000830184610f7f565b92915050565b600080fd5b6000819050919050565b610fc181610fae565b8114610fcc57600080fd5b50565b600081359050610fde81610fb8565b92915050565b600060208284031215610ffa57610ff9610fa9565b5b600061100884828501610fcf565b91505092915050565b60008115159050919050565b61102681611011565b82525050565b6000602082019050611041600083018461101d565b92915050565b61105081610f75565b811461105b57600080fd5b50565b60008135905061106d81611047565b92915050565b60006020828403121561108957611088610fa9565b5b60006110978482850161105e565b91505092915050565b600073ffffffffffffffffffffffffffffffffffffffff82169050919050565b60006110cb826110a0565b9050919050565b6110db816110c0565b82525050565b60007fff0000000000000000000000000000000000000000000000000000000000000082169050919050565b611116816110e1565b82525050565b60006060820190506111316000830186610f7f565b61113e60208301856110d2565b61114b604083018461110d565b949350505050565b61115c81610fae565b82525050565b60006020820190506111776000830184611153565b92915050565b6000611188826110a0565b9050919050565b6111988161117d565b82525050565b60006020820190506111b3600083018461118f565b92915050565b6111c2816110e1565b81146111cd57600080fd5b50565b6000813590506111df816111b9565b92915050565b600080604083850312156111fc576111fb610fa9565b5b600061120a858286016111d0565b925050602061121b85828601610fcf565b9150509250929050565b7f4e487b7100000000000000000000000000000000000000000000000000000000600052602160045260246000fd5b6003811061126557611264611225565b5b50565b600081905061127682611254565b919050565b600061128682611268565b9050919050565b6112968161127b565b82525050565b60006020820190506112b1600083018461128d565b92915050565b6000602082840312156112cd576112cc610fa9565b5b60006112db848285016111d0565b91505092915050565b600082825260208201905092915050565b7f4f6e6c79206f6e7765722063616e207365742074686520616e7377657220666f60008201527f722074657374206d6f6465000000000000000000000000000000000000000000602082015250565b6000611351602b836112e4565b915061135c826112f5565b604082019050919050565b6000602082019050818103600083015261138081611344565b9050919050565b7f4e487b7100000000000000000000000000000000000000000000000000000000600052601160045260246000fd5b60006113c182610f75565b91506113cc83610f75565b9250827fffffffffffffffffffffffffffffffffffffffffffffffffffffffffffffffff0382111561140157611400611387565b5b828201905092915050565b7f4e487b7100000000000000000000000000000000000000000000000000000000600052603260045260246000fd5b6000819050919050565b600061146061145b611456846110a0565b61143b565b6110a0565b9050919050565b600061147282611445565b9050919050565b600061148482611467565b9050919050565b61149481611479565b82525050565b600060c0820190506114af6000830189610f7f565b6114bc602083018861148b565b6114c96040830187610f7f565b6114d6606083018661110d565b6114e3608083018561110d565b6114f060a0830184610f7f565b979650505050505050565b6000819050919050565b600061152061151b611516846114fb565b61143b565b610f75565b9050919050565b61153081611505565b82525050565b600060c08201905061154b6000830189610f7f565b611558602083018861148b565b6115656040830187611527565b611572606083018661110d565b61157f608083018561110d565b61158c60a0830184610f7f565b979650505050505050565b600060a0820190506115ac6000830188610f7f565b6115b9602083018761148b565b6115c66040830186610f7f565b6115d3606083018561110d565b6115e06080830184610f7f565b9695505050505050565b60006115f582610f75565b91507fffffffffffffffffffffffffffffffffffffffffffffffffffffffffffffffff820361162757611626611387565b5b600182019050919050565b7f42657420616d6f756e742073686f756c6420626520302e303035204554480000600082015250565b6000611668601e836112e4565b915061167382611632565b602082019050919050565b600060208201905081810360008301526116978161165b565b9050919050565b7f4661696c656420746f206164642061206e65772042657420496e666f00000000600082015250565b60006116d4601c836112e4565b91506116df8261169e565b602082019050919050565b60006020820190508181036000830152611703816116c7565b9050919050565b600061171582610f75565b915061172083610f75565b92508282101561173357611732611387565b5b828203905092915050565b600060a0820190506117536000830188610f7f565b61176060208301876110d2565b61176d6040830186610f7f565b61177a606083018561110d565b6117876080830184610f7f565b969550505050505056fea2646970667358221220690d14111f42698bed04802a0cb2d0d84d04c9af64368b6b8e96f4cb2fcb42c364736f6c634300080f0033",
  "immutableReferences": {},
  "source": "// SPDX-License-Identifier: GPL-3.0\n\npragma solidity >=0.4.22 <0.9.0;\n\ncontract Lottery {\n\n    struct BetInfo {\n        //    3  tx answerBlockNumber 6\n        uint256 answerBlockNumber;\n        address payable bettor;\n        bytes1 challenges;\n    }\n\n    mapping(uint256 => BetInfo) private _bets;\n\n    uint256 private _tail;\n    uint256 private _head;\n    address payable public owner;\n    \n    uint256 private _pot;\n    uint256 constant internal BET_AMOUNT = 0.005 ether;\n    uint256 constant internal BET_BLOCK_INTERVAL = 3;\n    uint256 constant internal BLOCK_LIMIT = 256;\n    bytes32 public answerForTest;\n    bool private mode = false; // false: test, true: real mode(real blockhash)\n\n    function setAnswerForTest(bytes32 _answer) public returns (bool result) {\n        require(msg.sender == owner, \"Only onwer can set the answer for test mode\");\n        answerForTest = _answer;\n        return true;\n    }\n\n\n    enum BlockStatus {\n        Checkable,\n        NotRevealed,\n        BlockLimitPassed\n    }\n\n    enum BettingResult {\n        Fail,\n        Win,\n        Draw\n    }\n\n    event BET(uint256 index, address bettor, uint256 amount, bytes1 challenges, uint256 answerBlockNumber);\n    event WIN(uint256 index, address bettor, uint256 amount, bytes1 challenges, bytes1 answer, uint256 answerBlockNumber);\n    event FAIL(uint256 index, address bettor, uint256 amount, bytes1 challenges, bytes1 answer, uint256 answerBlockNumber);\n    event DRAW(uint256 index, address bettor, uint256 amount, bytes1 challenges, bytes1 answer, uint256 answerBlockNumber);\n    event REFUND(uint256 index, address bettor, uint256 amount, bytes1 challenges, uint256 answerBlockNumber);\n\n    constructor() {\n        owner = payable(msg.sender);\n    }\n\n    function getPot() public view returns (uint256 value) {\n        return _pot;\n    }\n\n    // Bet\n    /**\n     * @dev  .  0.005 ETH ,  1 byte  .\n     *      distribute  .\n     * @param challenges  1byte \n     * @return result     bool\n     */\n    function bet(bytes1 challenges) public payable returns (bool result) {\n        // check the value is send properly. \n        require(msg.value == BET_AMOUNT, \"Bet amount should be 0.005 ETH\");\n\n        // push bet to the queue\n        require(pushBet(challenges), \"Failed to add a new Bet Info\");\n\n        // emit event\n        emit BET(_tail - 1, msg.sender, msg.value, challenges, block.number + BET_BLOCK_INTERVAL);        \n        return true;\n    }\n\n    // Distribute () \n    // check the answer\n    /**\n     * @dev     .\n     * :  , :  ,  or  : \n     */\n    function distribute() public {\n        // queue    3(head),4,5,6,7,8,9,10(tail) \n        // 3   , , pop\n        // 4   , , pop\n        // ... 10   , , Pop\n        uint256 cur;\n        uint256 transferAmount;\n        BetInfo memory b;\n        BlockStatus currentBlockStatus;\n        BettingResult currentBettingResult;\n\n        for (cur = _head; cur <= _tail; cur++) {\n\n            //   \n            b = _bets[cur];\n            bytes32 answerBlockHash = getAnswerBlockHash(b.answerBlockNumber);\n            currentBlockStatus = getBlockStatus(b.answerBlockNumber);\n            // 1. checkable :  256 ,   \n            //    block.number > b.answerBlockNumber ->  block hash  \n            //    && block.number < b.answerBlockNumber + BLOCK_LIMIT\n            if (currentBlockStatus == BlockStatus.Checkable) {\n                currentBettingResult = isMatch(b.challenges, answerBlockHash);\n                // win - bettor gets pot\n                if (currentBettingResult == BettingResult.Win) {\n                    // transfer pot;\n                    transferAmount = transferAfterPayingFee(b.bettor, _pot + BET_AMOUNT);\n                    // pot = 0;\n                    _pot = 0;\n                    // emit event Win\n                    emit WIN(cur, b.bettor, transferAmount, b.challenges, answerBlockHash[0], b.answerBlockNumber);\n                }\n                // fail - bettor's money goes to pot\n                if (currentBettingResult == BettingResult.Fail) {\n                    // pot += betAmount;\n                    _pot += BET_AMOUNT;\n                    \n                    // emit event Fail\n                    emit FAIL(cur, b.bettor, 0, b.challenges, answerBlockHash[0], b.answerBlockNumber);\n                }\n\n                // draw - bettor's money will be refund\n                if (currentBettingResult == BettingResult.Draw) {\n                    // transfer only betAmount\n                    transferAmount = transferAfterPayingFee(b.bettor, BET_AMOUNT);\n                    // emit event Draw\n                    emit FAIL(cur, b.bettor, transferAmount, b.challenges, answerBlockHash[0], b.answerBlockNumber);\n                }\n            }\n\n            // 2. not revealed :     \n            //    block.number <= b.answerBlockNumber\n            if (currentBlockStatus == BlockStatus.NotRevealed) {\n                break;\n            }\n\n            // 3. block limit passed\n            //    block.number >= b.answerBlockNumber + BLOCK_LIMIT\n            if (currentBlockStatus == BlockStatus.BlockLimitPassed) {\n                // \n                // emit refund\n                transferAmount = transferAfterPayingFee(b.bettor, BET_AMOUNT);\n                emit REFUND(cur, b.bettor, transferAmount, b.challenges, b.answerBlockNumber);\n            }\n            popBet(cur);\n        }\n\n        _head = cur;\n    }\n\n    function getAnswerBlockHash(uint256 answerBlockNumber) internal view returns (bytes32 answer) {\n        return mode ? blockhash(answerBlockNumber) : answerForTest;\n    }\n\n    /**\n     * @dev   \n     * @param challenges  \n     * @param answer  \n     * @return BettingResult   \n     */\n    function isMatch(bytes1 challenges, bytes32 answer) public pure returns (BettingResult) {\n        // challenges 0xab\n        // answer 0xab.....ff 32bytes\n\n        bytes1 c1 = challenges;\n        bytes1 c2 = challenges;\n        bytes1 a1 = answer[0];\n        bytes1 a2 = answer[0];\n\n        //   \n        c1 = c1 >> 4; // 0xab -> 0x0a\n        c1 = c1 << 4; // 0x0a -> 0xa0\n\n        a1 = a1 >> 4;\n        a1 = a1 << 4;\n\n        //   \n        c2 = c2 << 4; // 0xab -> 0xb0\n        c2 = c2 >> 4; // 0xb0 -> 0x0b\n\n        a2 = a2 << 4;\n        a2 = a2 >> 4;\n\n        if (a1 == c1 && a2 == c2) {\n            return BettingResult.Win;\n        } \n        \n        if (a1 == c1 || a2 == c2) {\n            return BettingResult.Draw;\n        }\n\n        return BettingResult.Fail;\n    }\n\n    function getBlockStatus(uint256 answerBlockNumber) internal view returns (BlockStatus) {\n        if (block.number > answerBlockNumber && block.number < answerBlockNumber + BLOCK_LIMIT) {\n            return BlockStatus.Checkable;\n        }\n        \n        if (block.number <= answerBlockNumber) {\n            return BlockStatus.NotRevealed;\n        } \n        if (block.number >= answerBlockNumber + BLOCK_LIMIT) {\n            return BlockStatus.BlockLimitPassed;\n        }\n\n        //   \n        return BlockStatus.BlockLimitPassed;\n    }\n\n    function getBetInfo(uint256 index) public view returns(uint256 answerBlockNumber, address bettor, bytes1 challenges) {\n        BetInfo memory b = _bets[index];\n        answerBlockNumber = b.answerBlockNumber + BET_BLOCK_INTERVAL;\n        bettor = b.bettor;\n        challenges = b.challenges;\n    }\n\n    function pushBet(bytes1 challenges) internal returns (bool) {\n        BetInfo memory b;\n        b.bettor = payable(msg.sender);\n        b.answerBlockNumber = block.number;\n        b.challenges = challenges;\n\n        _bets[_tail] = b;\n        _tail++;\n\n        return true;\n    }\n\n    function popBet(uint256 index) internal returns (bool) {\n        delete _bets[index];\n        return true;\n    }\n\n    function transferAfterPayingFee(address payable addr, uint256 amount) internal returns (uint256) {\n        // uint256 fee = amount / 100;\n        uint256 fee = 0;\n        uint256 amountWithoutFee = amount - fee;\n\n        // transfer to address\n        addr.transfer(amountWithoutFee);\n        // transfer to owner\n        owner.transfer(fee);\n\n        return amountWithoutFee;\n    }\n}",
  "sourcePath": "/Users/jy/Desktop/study/blockchain/lottery-smart-contract/contracts/Lottery.sol",
  "compiler": {
    "name": "solc",
    "version": "0.8.15+commit.e14f2714.Emscripten.clang"
  },
  "schemaVersion": "3.4.8",
  "updatedAt": "2022-08-04T16:35:35.450Z",
  "devdoc": {
    "kind": "dev",
    "methods": {
      "bet(bytes1)": {
        "details": " .  0.005 ETH ,  1 byte  .      distribute  .",
        "params": {
          "challenges": " 1byte "
        },
        "returns": {
          "result": "    bool"
        }
      },
      "distribute()": {
        "details": "    . :  , :  ,  or  : "
      },
      "isMatch(bytes1,bytes32)": {
        "details": "  ",
        "params": {
          "answer": " ",
          "challenges": " "
        },
        "returns": {
          "_0": "BettingResult   "
        }
      }
    },
    "version": 1
  },
  "userdoc": {
    "kind": "user",
    "methods": {},
    "version": 1
  }
}