{
  "contractName": "Lottery",
  "abi": [
    {
      "inputs": [],
      "stateMutability": "nonpayable",
      "type": "constructor"
    },
    {
      "anonymous": false,
      "inputs": [
        {
          "indexed": false,
          "internalType": "uint256",
          "name": "index",
          "type": "uint256"
        },
        {
          "indexed": false,
          "internalType": "address",
          "name": "bettor",
          "type": "address"
        },
        {
          "indexed": false,
          "internalType": "uint256",
          "name": "amount",
          "type": "uint256"
        },
        {
          "indexed": false,
          "internalType": "bytes1",
          "name": "challenges",
          "type": "bytes1"
        },
        {
          "indexed": false,
          "internalType": "uint256",
          "name": "answerBlockNumber",
          "type": "uint256"
        }
      ],
      "name": "BET",
      "type": "event"
    },
    {
      "inputs": [],
      "name": "owner",
      "outputs": [
        {
          "internalType": "address",
          "name": "",
          "type": "address"
        }
      ],
      "stateMutability": "view",
      "type": "function"
    },
    {
      "inputs": [],
      "name": "getPot",
      "outputs": [
        {
          "internalType": "uint256",
          "name": "value",
          "type": "uint256"
        }
      ],
      "stateMutability": "view",
      "type": "function"
    },
    {
      "inputs": [
        {
          "internalType": "bytes1",
          "name": "challenges",
          "type": "bytes1"
        }
      ],
      "name": "bet",
      "outputs": [
        {
          "internalType": "bool",
          "name": "result",
          "type": "bool"
        }
      ],
      "stateMutability": "payable",
      "type": "function"
    },
    {
      "inputs": [],
      "name": "distribute",
      "outputs": [],
      "stateMutability": "nonpayable",
      "type": "function"
    },
    {
      "inputs": [
        {
          "internalType": "bytes1",
          "name": "challenges",
          "type": "bytes1"
        },
        {
          "internalType": "bytes32",
          "name": "answer",
          "type": "bytes32"
        }
      ],
      "name": "isMatch",
      "outputs": [
        {
          "internalType": "enum Lottery.BettingResult",
          "name": "",
          "type": "uint8"
        }
      ],
      "stateMutability": "pure",
      "type": "function"
    },
    {
      "inputs": [
        {
          "internalType": "uint256",
          "name": "index",
          "type": "uint256"
        }
      ],
      "name": "getBetInfo",
      "outputs": [
        {
          "internalType": "uint256",
          "name": "answerBlockNumber",
          "type": "uint256"
        },
        {
          "internalType": "address",
          "name": "bettor",
          "type": "address"
        },
        {
          "internalType": "bytes1",
          "name": "challenges",
          "type": "bytes1"
        }
      ],
      "stateMutability": "view",
      "type": "function"
    }
  ],
  "bytecode": "0x608060405234801561001057600080fd5b5033600360006101000a81548173ffffffffffffffffffffffffffffffffffffffff021916908373ffffffffffffffffffffffffffffffffffffffff16021790555061102c806100616000396000f3fe6080604052600436106100555760003560e01c8063403c9fa81461005a57806379141f80146100855780638da5cb5b146100c457806399a167d7146100ef578063e4fc6b6d1461012c578063f4b46f5b14610143575b600080fd5b34801561006657600080fd5b5061006f610173565b60405161007c9190610aac565b60405180910390f35b34801561009157600080fd5b506100ac60048036038101906100a79190610af8565b61017d565b6040516100bb93929190610ba1565b60405180910390f35b3480156100d057600080fd5b506100d9610286565b6040516100e69190610bd8565b60405180910390f35b3480156100fb57600080fd5b5061011660048036038101906101119190610c55565b6102ac565b6040516101239190610d0c565b60405180910390f35b34801561013857600080fd5b50610141610595565b005b61015d60048036038101906101589190610d27565b610739565b60405161016a9190610d6f565b60405180910390f35b6000600454905090565b600080600080600080868152602001908152602001600020604051806060016040529081600082015481526020016001820160009054906101000a900473ffffffffffffffffffffffffffffffffffffffff1673ffffffffffffffffffffffffffffffffffffffff1673ffffffffffffffffffffffffffffffffffffffff1681526020016001820160149054906101000a900460f81b7effffffffffffffffffffffffffffffffffffffffffffffffffffffffffffff19167effffffffffffffffffffffffffffffffffffffffffffffffffffffffffffff19168152505090506003816000015161026e9190610db9565b93508060200151925080604001519150509193909250565b600360009054906101000a900473ffffffffffffffffffffffffffffffffffffffff1681565b60008083905060008490506000846000602081106102cd576102cc610e0f565b5b1a60f81b90506000856001602081106102e9576102e8610e0f565b5b1a60f81b90506004847effffffffffffffffffffffffffffffffffffffffffffffffffffffffffffff1916901c93506004847effffffffffffffffffffffffffffffffffffffffffffffffffffffffffffff1916901b93506004827effffffffffffffffffffffffffffffffffffffffffffffffffffffffffffff1916901c91506004827effffffffffffffffffffffffffffffffffffffffffffffffffffffffffffff1916901b91506004837effffffffffffffffffffffffffffffffffffffffffffffffffffffffffffff1916901b92506004837effffffffffffffffffffffffffffffffffffffffffffffffffffffffffffff1916901c92506004817effffffffffffffffffffffffffffffffffffffffffffffffffffffffffffff1916901b90506004817effffffffffffffffffffffffffffffffffffffffffffffffffffffffffffff1916901c9050837effffffffffffffffffffffffffffffffffffffffffffffffffffffffffffff1916827effffffffffffffffffffffffffffffffffffffffffffffffffffffffffffff19161480156104cd5750827effffffffffffffffffffffffffffffffffffffffffffffffffffffffffffff1916817effffffffffffffffffffffffffffffffffffffffffffffffffffffffffffff1916145b156104df57600194505050505061058f565b837effffffffffffffffffffffffffffffffffffffffffffffffffffffffffffff1916827effffffffffffffffffffffffffffffffffffffffffffffffffffffffffffff191614806105745750827effffffffffffffffffffffffffffffffffffffffffffffffffffffffffffff1916817effffffffffffffffffffffffffffffffffffffffffffffffffffffffffffff1916145b1561058657600294505050505061058f565b60009450505050505b92915050565b600061059f610a3a565b600060025492505b600154831161073457600080848152602001908152602001600020604051806060016040529081600082015481526020016001820160009054906101000a900473ffffffffffffffffffffffffffffffffffffffff1673ffffffffffffffffffffffffffffffffffffffff1673ffffffffffffffffffffffffffffffffffffffff1681526020016001820160149054906101000a900460f81b7effffffffffffffffffffffffffffffffffffffffffffffffffffffffffffff19167effffffffffffffffffffffffffffffffffffffffffffffffffffffffffffff1916815250509150610697826000015161082d565b9050600060028111156106ad576106ac610c95565b5b8160028111156106c0576106bf610c95565b5b5050600160028111156106d6576106d5610c95565b5b8160028111156106e9576106e8610c95565b5b03156107345760028081111561070257610701610c95565b5b81600281111561071557610714610c95565b5b50506107208361088f565b50828061072c90610e3e565b9350506105a7565b505050565b60006611c37937e080003414610784576040517f08c379a000000000000000000000000000000000000000000000000000000000815260040161077b90610ee3565b60405180910390fd5b61078d826108f2565b6107cc576040517f08c379a00000000000000000000000000000000000000000000000000000000081526004016107c390610f4f565b60405180910390fd5b7f100791de9f40bf2d56ffa6dc5597d2fd0b2703ea70bc7548cd74c04f5d215ab7600180546107fb9190610f6f565b33348560034361080b9190610db9565b60405161081c959493929190610fa3565b60405180910390a160019050919050565b6000814311801561084a5750610100826108479190610db9565b43105b15610858576000905061088a565b814311610868576001905061088a565b610100826108769190610db9565b4310610885576002905061088a565b600290505b919050565b60008060008381526020019081526020016000206000808201600090556001820160006101000a81549073ffffffffffffffffffffffffffffffffffffffff02191690556001820160146101000a81549060ff0219169055505060019050919050565b60006108fc610a3a565b33816020019073ffffffffffffffffffffffffffffffffffffffff16908173ffffffffffffffffffffffffffffffffffffffff1681525050438160000181815250508281604001907effffffffffffffffffffffffffffffffffffffffffffffffffffffffffffff191690817effffffffffffffffffffffffffffffffffffffffffffffffffffffffffffff1916815250508060008060015481526020019081526020016000206000820151816000015560208201518160010160006101000a81548173ffffffffffffffffffffffffffffffffffffffff021916908373ffffffffffffffffffffffffffffffffffffffff16021790555060408201518160010160146101000a81548160ff021916908360f81c021790555090505060016000815480929190610a2b90610e3e565b91905055506001915050919050565b604051806060016040528060008152602001600073ffffffffffffffffffffffffffffffffffffffff16815260200160007effffffffffffffffffffffffffffffffffffffffffffffffffffffffffffff191681525090565b6000819050919050565b610aa681610a93565b82525050565b6000602082019050610ac16000830184610a9d565b92915050565b600080fd5b610ad581610a93565b8114610ae057600080fd5b50565b600081359050610af281610acc565b92915050565b600060208284031215610b0e57610b0d610ac7565b5b6000610b1c84828501610ae3565b91505092915050565b600073ffffffffffffffffffffffffffffffffffffffff82169050919050565b6000610b5082610b25565b9050919050565b610b6081610b45565b82525050565b60007fff0000000000000000000000000000000000000000000000000000000000000082169050919050565b610b9b81610b66565b82525050565b6000606082019050610bb66000830186610a9d565b610bc36020830185610b57565b610bd06040830184610b92565b949350505050565b6000602082019050610bed6000830184610b57565b92915050565b610bfc81610b66565b8114610c0757600080fd5b50565b600081359050610c1981610bf3565b92915050565b6000819050919050565b610c3281610c1f565b8114610c3d57600080fd5b50565b600081359050610c4f81610c29565b92915050565b60008060408385031215610c6c57610c6b610ac7565b5b6000610c7a85828601610c0a565b9250506020610c8b85828601610c40565b9150509250929050565b7f4e487b7100000000000000000000000000000000000000000000000000000000600052602160045260246000fd5b60038110610cd557610cd4610c95565b5b50565b6000819050610ce682610cc4565b919050565b6000610cf682610cd8565b9050919050565b610d0681610ceb565b82525050565b6000602082019050610d216000830184610cfd565b92915050565b600060208284031215610d3d57610d3c610ac7565b5b6000610d4b84828501610c0a565b91505092915050565b60008115159050919050565b610d6981610d54565b82525050565b6000602082019050610d846000830184610d60565b92915050565b7f4e487b7100000000000000000000000000000000000000000000000000000000600052601160045260246000fd5b6000610dc482610a93565b9150610dcf83610a93565b9250827fffffffffffffffffffffffffffffffffffffffffffffffffffffffffffffffff03821115610e0457610e03610d8a565b5b828201905092915050565b7f4e487b7100000000000000000000000000000000000000000000000000000000600052603260045260246000fd5b6000610e4982610a93565b91507fffffffffffffffffffffffffffffffffffffffffffffffffffffffffffffffff8203610e7b57610e7a610d8a565b5b600182019050919050565b600082825260208201905092915050565b7f42657420616d6f756e742073686f756c6420626520302e303035204554480000600082015250565b6000610ecd601e83610e86565b9150610ed882610e97565b602082019050919050565b60006020820190508181036000830152610efc81610ec0565b9050919050565b7f4661696c656420746f206164642061206e65772042657420496e666f00000000600082015250565b6000610f39601c83610e86565b9150610f4482610f03565b602082019050919050565b60006020820190508181036000830152610f6881610f2c565b9050919050565b6000610f7a82610a93565b9150610f8583610a93565b925082821015610f9857610f97610d8a565b5b828203905092915050565b600060a082019050610fb86000830188610a9d565b610fc56020830187610b57565b610fd26040830186610a9d565b610fdf6060830185610b92565b610fec6080830184610a9d565b969550505050505056fea2646970667358221220cab707677b935982bfd5e7e858b905355cd3438193774759f27613074b257d7164736f6c634300080f0033",
  "immutableReferences": {},
  "source": "// SPDX-License-Identifier: GPL-3.0\n\npragma solidity >=0.4.22 <0.9.0;\n\ncontract Lottery {\n\n    struct BetInfo {\n        //    3  tx answerBlockNumber 6\n        uint256 answerBlockNumber;\n        address payable bettor;\n        bytes1 challenges;\n    }\n\n    mapping(uint256 => BetInfo) private _bets;\n\n    uint256 private _tail;\n    uint256 private _head;\n    address public owner;\n    \n    uint256 private _pot;\n    uint256 constant internal BET_AMOUNT = 0.005 ether;\n    uint256 constant internal BET_BLOCK_INTERVAL = 3;\n    uint256 constant internal BLOCK_LIMIT = 256;\n\n    enum BlockStatus {\n        Checkable,\n        NotRevealed,\n        BlockLimitPassed\n    }\n\n    enum BettingResult {\n        Fail,\n        Win,\n        Draw\n    }\n\n    event BET(uint256 index, address bettor, uint256 amount, bytes1 challenges, uint256 answerBlockNumber);\n\n    constructor() {\n        owner = msg.sender;\n    }\n\n    function getPot() public view returns (uint256 value) {\n        return _pot;\n    }\n\n    // Bet\n    /**\n     * @dev  .  0.005 ETH ,  1 byte  .\n     *      distribute  .\n     * @param challenges  1byte \n     * @return result     bool\n     */\n    function bet(bytes1 challenges) public payable returns (bool result) {\n        // check the value is send properly. \n        require(msg.value == BET_AMOUNT, \"Bet amount should be 0.005 ETH\");\n\n        // push bet to the queue\n        require(pushBet(challenges), \"Failed to add a new Bet Info\");\n\n        // emit event\n        emit BET(_tail - 1, msg.sender, msg.value, challenges, block.number + BET_BLOCK_INTERVAL);        \n        return true;\n    }\n\n    // Distribute () \n    // check the answer\n    function distribute() public {\n        // queue    3(head),4,5,6,7,8,9,10(tail) \n        // 3   , , pop\n        // 4   , , pop\n        // ... 10   , , Pop\n        uint256 cur;\n        BetInfo memory b;\n        BlockStatus currentBlockStatus;\n\n        for (cur = _head; cur <= _tail; cur++) {\n\n            //   \n            b = _bets[cur];\n            currentBlockStatus = getBlockStatus(b.answerBlockNumber);\n            // 1. checkable :  256 ,   \n            //    block.number > b.answerBlockNumber ->  block hash  \n            //    && block.number < b.answerBlockNumber + BLOCK_LIMIT\n            if (currentBlockStatus == BlockStatus.Checkable) {\n                // win - bettor gets pot\n\n\n                // fail - bettor's money goes to pot\n\n                // draw - bettor's money will be refund\n            }\n\n            // 2. not revealed :     \n            //    block.number <= b.answerBlockNumber\n            if (currentBlockStatus == BlockStatus.NotRevealed) {\n                break;\n            }\n\n            // 3. block limit passed\n            //    block.number >= b.answerBlockNumber + BLOCK_LIMIT\n            if (currentBlockStatus == BlockStatus.BlockLimitPassed) {\n                // \n                // emit refund\n            }\n\n            popBet(cur);\n\n        }\n    }\n\n    /**\n     * @dev   \n     * @param challenges  \n     * @param answer  \n     * @return BettingResult   \n     */\n    function isMatch(bytes1 challenges, bytes32 answer) public pure returns (BettingResult) {\n        // challenges 0xab\n        // answer 0xab.....ff 32bytes\n\n        bytes1 c1 = challenges;\n        bytes1 c2 = challenges;\n        bytes1 a1 = answer[0];\n        bytes1 a2 = answer[1];\n\n        //   \n        c1 = c1 >> 4; // 0xab -> 0x0a\n        c1 = c1 << 4; // 0x0a -> 0xa0\n\n        a1 = a1 >> 4;\n        a1 = a1 << 4;\n\n        //   \n        c2 = c2 << 4; // 0xab -> 0xb0\n        c2 = c2 >> 4; // 0xb0 -> 0x0b\n\n        a2 = a2 << 4;\n        a2 = a2 >> 4;\n\n        if (a1 == c1 && a2 == c2) {\n            return BettingResult.Win;\n        } \n        \n        if (a1 == c1 || a2 == c2) {\n            return BettingResult.Draw;\n        }\n\n        return BettingResult.Fail;\n    }\n\n    function getBlockStatus(uint256 answerBlockNumber) internal view returns (BlockStatus) {\n        if (block.number > answerBlockNumber && block.number < answerBlockNumber + BLOCK_LIMIT) {\n            return BlockStatus.Checkable;\n        }\n        \n        if (block.number <= answerBlockNumber) {\n            return BlockStatus.NotRevealed;\n        } \n        if (block.number >= answerBlockNumber + BLOCK_LIMIT) {\n            return BlockStatus.BlockLimitPassed;\n        }\n\n        //   \n        return BlockStatus.BlockLimitPassed;\n    }\n\n    function getBetInfo(uint256 index) public view returns(uint256 answerBlockNumber, address bettor, bytes1 challenges) {\n        BetInfo memory b = _bets[index];\n        answerBlockNumber = b.answerBlockNumber + BET_BLOCK_INTERVAL;\n        bettor = b.bettor;\n        challenges = b.challenges;\n    }\n\n    function pushBet(bytes1 challenges) internal returns (bool) {\n        BetInfo memory b;\n        b.bettor = payable(msg.sender);\n        b.answerBlockNumber = block.number;\n        b.challenges = challenges;\n\n        _bets[_tail] = b;\n        _tail++;\n\n        return true;\n    }\n\n    function popBet(uint256 index) internal returns (bool) {\n        delete _bets[index];\n        return true;\n    }\n\n}",
  "sourcePath": "/Users/jy/Desktop/study/blockchain/lottery-smart-contract/contracts/Lottery.sol",
  "compiler": {
    "name": "solc",
    "version": "0.8.15+commit.e14f2714.Emscripten.clang"
  },
  "schemaVersion": "3.4.8",
  "updatedAt": "2022-08-04T14:58:24.553Z",
  "devdoc": {
    "kind": "dev",
    "methods": {
      "bet(bytes1)": {
        "details": " .  0.005 ETH ,  1 byte  .      distribute  .",
        "params": {
          "challenges": " 1byte "
        },
        "returns": {
          "result": "    bool"
        }
      },
      "isMatch(bytes1,bytes32)": {
        "details": "  ",
        "params": {
          "answer": " ",
          "challenges": " "
        },
        "returns": {
          "_0": "BettingResult   "
        }
      }
    },
    "version": 1
  },
  "userdoc": {
    "kind": "user",
    "methods": {},
    "version": 1
  }
}